:100000000C942A000C94F2000C9447000C944700C6
:100010000C9447000C9447000C9447000C94470044
:100020000C9447000C9447000C9491000C94BA0077
:100030000C9447000C9447000C9447000C94470024
:100040000C9447000C9447000C9447000C94470014
:100050000C94470011241FBECFE5D8E0DEBFCDBF12
:1000600010E0A0E6B0E0E0E0FEE002C005900D92F6
:10007000A038B107D9F710E0A0E8B0E001C01D92A8
:10008000A938B107E1F70E9428060C94FE060C94EB
:10009000000083B7886083BF83B7806483BF83B762
:1000A0008F7E83BF83B7806283BF83B78E7F83BF1A
:1000B00083B78D7F83BF83B7846083BF089583BF79
:1000C00008958CBF08959C01009751F080918000A5
:1000D00090918100892B21F430938100209380003E
:1000E00008959C01009751F08091820090918300C7
:1000F000892B21F430938300209382000895853664
:1001000078F46FEF869FB0011124882777FD8095E2
:10011000982F24E630E040E050E00E94DC062CBF3F
:1001200008951F920F920FB60F9211242F933F93B1
:100130004F935F936F937F938F939F93AF93BF93EF
:10014000EF93FF93E0918200F0918300309709F0E4
:100150000995FF91EF91BF91AF919F918F917F9101
:100160006F915F914F913F912F910F900FBE0F9024
:100170001F9018951F920F920FB60F9211242F9374
:100180003F934F935F936F937F938F939F93AF931F
:10019000BF93EF93FF93E0918000F091810030973F
:1001A00009F00995FF91EF91BF91AF919F918F91C8
:1001B0007F916F915F914F913F912F910F900FBE63
:1001C0000F901F9018958FB780688FBF08958FB7D5
:1001D0008F778FBF0895009721F0909385008093CB
:1001E000840008951F920F920FB60F9211242F933F
:1001F0003F934F935F936F937F938F939F93AF93AF
:10020000BF93EF93FF93E0918400F09185003097C6
:1002100009F00995FF91EF91BF91AF919F918F9157
:100220007F916F915F914F913F912F910F900FBEF2
:100230000F901F90189585B78E7F85BF85B78D7FEE
:1002400085BF8BB780648BBF089585B78B7F85BFD3
:1002500085B7877F85BF089508950895982F862FC5
:1002600081508E3F80F0913049F0913028F09230EB
:1002700039F0933041F406C06ABB089567BB089516
:1002800064BB089561BB0895382F883008F078C0AA
:10029000613029F1613038F0623009F43CC06330DC
:1002A00009F06EC053C0413059F42AB381E090E0A8
:1002B00002C0880F991F3A95E2F7282B2ABB0895B0
:1002C000442309F05DC02AB381E090E002C0880FAA
:1002D000991F3A95E2F7809582238ABB08954130B1
:1002E00059F427B381E090E002C0880F991F3A9536
:1002F000E2F7282B27BB0895442309F041C027B318
:1003000081E090E002C0880F991F3A95E2F780954E
:10031000822387BB0895413059F424B381E090E0F3
:1003200002C0880F991F3A95E2F7282B24BB089545
:10033000442331F524B381E090E002C0880F991F77
:100340003A95E2F78095822384BB0895413059F4B1
:1003500021B381E090E002C0880F991F3A95E2F73F
:10036000282B21BB0895442359F421B381E090E068
:1003700002C0880F991F3A95E2F78095822381BBCE
:100380000895982F862F81508E3F80F0913049F04C
:10039000913028F0923039F0933041F406C06BBBB5
:1003A000089568BB089565BB089565BB0895382F0F
:1003B000883008F078C0613029F1613038F062305F
:1003C00009F43CC0633009F06EC053C0413059F4A9
:1003D0002BB381E090E002C0880F991F3A95E2F7B5
:1003E000282B2BBB0895442309F05DC02BB381E07B
:1003F00090E002C0880F991F3A95E2F7809582231A
:100400008BBB0895413059F428B381E090E002C0DD
:10041000880F991F3A95E2F7282B28BB08954423AB
:1004200009F041C028B381E090E002C0880F991F15
:100430003A95E2F78095822388BB0895413059F4BC
:1004400025B381E090E002C0880F991F3A95E2F74A
:10045000282B25BB0895442331F525B381E090E096
:1004600002C0880F991F3A95E2F78095822385BBD9
:100470000895413059F422B381E090E002C0880F22
:10048000991F3A95E2F7282B22BB0895442359F48B
:1004900022B381E090E002C0880F991F3A95E2F7FD
:1004A0008095822382BB0895FB016115710591F04F
:1004B000813049F0813028F0823039F0833051F4B6
:1004C00007C089B303C086B301C083B38083089596
:1004D00080B380830895282FFA01883000F56130B9
:1004E00049F0613028F0623039F06330C1F40EC059
:1004F00089B303C086B301C083B390E002C0959571
:1005000087952A95E2F781708083089580B390E003
:1005100002C0959587952A95E2F7817080830895AA
:10052000382F8830A0F5613091F0613028F06230CA
:10053000C9F0633061F521C02BB381E090E002C0C7
:10054000880F991F3A95E2F728272BBB089528B307
:1005500081E090E002C0880F991F3A95E2F72827C2
:1005600028BB089525B381E090E002C0880F991F51
:100570003A95E2F7282725BB089522B381E090E061
:1005800002C0880F991F3A95E2F7282722BB0895E9
:10059000582F853008F050C0842F90E08F709070F5
:1005A000052E02C0880F991F0A94E2F7482F613088
:1005B000B9F0613030F0623011F1633009F03CC0C5
:1005C0002DC08BB32FE030E002C0220F331F5A95AD
:1005D000E2F7209528232BBB8BB3482B4BBB089508
:1005E00088B32FE030E002C0220F331F5A95E2F7A4
:1005F0002095282328BB88B3482B48BB089585B392
:100600002FE030E002C0220F331F5A95E2F7209509
:10061000282325BB85B3482B45BB089582B32FE023
:1006200030E002C0220F331F5A95E2F720952823AD
:1006300022BB82B3482B42BB08953E9A3F98309824
:100640003198329A3D98089597B1907E97B997B1B5
:100650008F71892B87B9369A349BFECF24B135B17F
:10066000C9010895CF93DF93EC016A3008F07BC095
:100670006430E9F1653050F46130F1F06130C0F080
:10068000623041F1633009F06EC028C0673009F470
:100690003FC0683030F4653071F1663009F063C0F6
:1006A00033C0683009F447C0693009F05CC047C006
:1006B0008B816A8140E003C08B816A8141E00E94A6
:1006C000D7018D816C8140E00E94D7018F816E81BE
:1006D00040E02BC08B816A8140E003C08B816A813E
:1006E00041E00E94D7018D816C8141E0EDCF8B818B
:1006F0006A8140E003C08B816A8141E00E94D7019A
:100700008D816C8140E00CC08B816A8140E003C028
:100710008B816A8141E00E94D7018D816C8141E02B
:100720000E94D7018F816E8141E00E94D7018985A7
:10073000688540E016C08B816A8140E003C08B81F0
:100740006A8141E00E94D7018D816C8140E00E9466
:10075000D7018F816E8140E00E94D701898568852D
:1007600041E00E94D701DF91CF910895FC016130F3
:1007700031F48181608141E00E94D70108956623B0
:1007800029F48181608140E00E94D70108950F9390
:100790001F938C01FC018181608141E00E94440132
:1007A000F8018381628141E00E944401F801858162
:1007B000648141E00E944401F8018781668141E043
:1007C0000E944401F8018185608541E00E94440156
:1007D0001F910F9108952F923F924F925F927F92B7
:1007E0008F929F92AF92BF92CF92DF92EF92FF9241
:1007F0000F931F93DF93CF93CDB7DEB729970FB633
:10080000F894DEBF0FBECDBF80918600803121F409
:1008100081E060E00E947A0580918600813249F48F
:1008200081E00E943E051092860080E060E00E9418
:100830007A051982DE011296E7E7F0E088E0019080
:100840000D928150E1F777247A94CC24DD244E0177
:100850000894811C911C30E4232E3CE9332E2AE0BD
:10086000422E512C4C0E5D1EE2E0F0E0EC0FFD1F1D
:10087000EC0DFD1DA0808A2D63E040E00E94D701B1
:1008800096E0E92EF12CEC0EFD1E8601000F111FE3
:10089000000F111F09591F4FF701B0808B2D62E027
:1008A000A4010E946B028981882399F4F801708069
:1008B000809186008F5F8093860005C08B2D62E05B
:1008C000A4010E946B0289818823C1F3C1010197B1
:1008D000F1F70894E11CF11C0F5F1F4FE414F504BD
:1008E000D9F68A2D63E041E00E94D7010894C11C2B
:1008F000D11CF4E0CF16D10409F0B6CF872D29968C
:100900000FB6F894DEBF0FBECDBFCF91DF911F9120
:100910000F91FF90EF90DF90CF90BF90AF909F909E
:100920008F907F905F904F903F902F90089580E040
:1009300063E041E00E94440181E063E041E00E9405
:10094000440184E063E041E00E94440185E063E00B
:1009500041E00E94440183E062E040E00E944401E3
:1009600084E062E040E00E94440185E062E040E013
:100970000E94440186E062E040E00E94440183E07E
:1009800062E041E00E94D70184E062E041E00E9421
:10099000D70185E062E041E00E94D70186E062E095
:1009A00041E00E94D70180E063E041E00E94D7016E
:1009B00081E063E041E00E94D70184E063E041E030
:1009C0000E94D70185E063E041E00E94D7010895CD
:1009D000EF92FF921F93182F82E061E040E00E94A7
:1009E000D70181E061E041E00E94D701412F4295AB
:1009F0004F7084E060E00E94C80283E061E041E063
:100A00000E94D70180E4E82E8FE1F82EC7010197FC
:100A1000F1F783E061E040E00E94D70184E060E00C
:100A2000412F0E94C80283E061E041E00E94D701AB
:100A3000C7010197F1F783E061E040E00E94D70130
:100A40001F91FF90EF90089503C06AE00E94D006C6
:100A50008823D9F708951F93CF93DF93EC0110E01B
:100A600003C00E94E8041F5FFE01E10FF11D8081B9
:100A70008823B9F7DF91CF911F910895EF92FF92EC
:100A80001F93182F82E061E040E00E94D70181E0CF
:100A900061E040E00E94D701412F42954F7084E011
:100AA00060E00E94C80283E061E041E00E94D7015B
:100AB00090E4E92E9FE1F92EC7010197F1F783E059
:100AC00061E040E00E94D70184E060E0412F0E9495
:100AD000C80283E061E041E00E94D701C7010197AD
:100AE000F1F783E061E040E00E94D7011F91FF90A1
:100AF000EF900895823068F4603158F4882329F427
:100B0000862F80580E943E050895862F80540E94AB
:100B10003E0508951F93CF93DF93EC01862F642F3A
:100B20000E947A0510E003C00E94E8041F5FFE01E6
:100B3000E10FF11D80818823B9F7DF91CF911F91DB
:100B40000895EF92FF920F931F938EE591E020E9B5
:100B500031E0F9013197F1F70197D9F784E060E0CE
:100B600041E00E94440185E060E041E00E944401D0
:100B700086E060E041E00E94440187E060E041E0FF
:100B80000E94440181E061E041E00E94440182E072
:100B900061E041E00E94440183E061E041E00E94A5
:100BA000440184E060E042E00E94C80283E061E02A
:100BB00041E00E94D70120E4E22E2FE1F22EC7018E
:100BC0000197F1F783E061E040E00E94D70100EA7D
:100BD0001FE0C8010197F1F788E20E943E05C801B5
:100BE0000197F1F78FE00E943E05C8010197F1F7E8
:100BF00081E00E943E05C7010197F1F786E00E945F
:100C00003E051F910F91FF90EF9008958FB58E7F55
:100C10008FBD8FB582608FBD8EB580618EBD8EB564
:100C200088608EBD8FB580688FBD8FB58F7B8FBD7F
:100C30008EB581608EBD8EB582608EBD8EB58B7F88
:100C40008EBD089597BD86BD08959BBD8ABD08954C
:100C5000CF92DF92EF92FF920F931F93DF93CF9388
:100C6000CDB7DEB72E970FB6F894DEBF0FBECDBF5F
:100C700088E890E097BD86BD0E9406060E94A10507
:100C800083E062E041E00E94440184E062E041E0F0
:100C90000E94440185E063E041E00E944401DE01DE
:100CA0001196E0E6F0E087E001900D928150E1F7C7
:100CB00084E490E2ADE3B0E088879987AA87BB8798
:100CC000FE013C9683E0DF011D928A95E9F784ECF2
:100CD000C82ED12C7E010894E11CF11C8E01085F06
:100CE0001F4F83E062E041E00E94D70184E062E0B0
:100CF00040E00E94D701DBBCCABCC7010E942B05A3
:100D000085E30E94E80480E30E94E80488E60E94EC
:100D1000E8048AE70E94E8048FE20E94E804C80120
:100D20000E942B0585E30E94E80480E30E94E8040A
:100D300085E20E94E80481E060E00E947A058DE28D
:100D40000E94E8048DE20E94E8048DE20E94E8041B
:100D50008DE20E94E8048CE70E94E8048FE50E947F
:100D6000E8048FE50E94E8048FE50E94E8048FE51F
:100D70000E94E8048CE70E94E8048DE20E94E804E7
:100D80008DE20E94E8048DE20E94E8048DE20E9458
:100D9000E8048CE70E94E8048FE50E94E804A1CFF4
:100DA000991B79E004C0991F961708F0961B881FBD
:100DB0007A95C9F780950895A1E21A2EAA1BBB1B4C
:100DC000FD010DC0AA1FBB1FEE1FFF1FA217B30717
:100DD000E407F50720F0A21BB30BE40BF50B661F2D
:100DE000771F881F991F1A9469F7609570958095F1
:100DF00090959B01AC01BD01CF010895F894FFCF00
:100E000046726571203D003134372A32353830332F
:100E1000363923414243440001040503040506001A
:00000001FF
